8=FIX.4.4|9=143|35=V|34=1|49=QUICKFIX_INITIATOR1|52=20231115-08:52:38.437|56=QUICKFIX_ACCEPTOR|262=mockedMDReqID|263=1|146=2|55=mockedSymbol1|55=mockedSymbol2|10=023|8=FIX.4.4|9=158|35=D|34=2|49=QUICKFIX_INITIATOR1|52=20231115-08:52:43.468|56=QUICKFIX_ACCEPTOR|1=mockedAccount|11=mockedClOrdID|21=1|38=45|40=2|44=25.88|54=1|55=mockedSymbol|10=208|